:08000000803102288731DD2F59
:100E3C000134FF34FE34FE34FE34FE0012001E007A
:100E4C00FE0B242F003446340034003400340034BC
:100E5C0046347234F030210099001A1F332F1030B1
:100E6C00950020008C0122008C01033023008C00A3
:100E7C0021009D0160309E000F308C000830240052
:100E8C008C000A30210097008B0108008731302735
:100E9C008731E43000320032890B502F003200329F
:100EAC007B08F8007808F500003084008830850055
:100EBC0000088731782787317B030319672F0130AE
:100ECC00682F0030F8007808FB000930F9001E305C
:100EDC00F800E430890B702FF80B702FF90B702F82
:100EEC000032562FF70077080319080077087507AA
:100EFC00F6007608FD007D080139F6007608FD0045
:100F0C007D08223E860087010108F6007608200045
:100F1C00A7000830F6007608FA007A080319A22F09
:100F2C000C160000A71F0C120000A7350C12013084
:100F3C00FA027A08031D962F7D08203E8600870151
:100F4C000108F60076082000A7000830F6007608A5
:100F5C00FA007A080319BE2F0C160000A71F0C12FA
:100F6C000000A7350C120130FA027A08031DB22FCB
:100F7C007D08243E860087010108F60076082000D3
:100F8C00A7000830F6007608FA007A080319DA2F61
:100F9C000C160000A71F0C120000A7350C12013014
:100FAC00FA027A08031DCE2F0130F702792F1E307A
:100FBC008400873085007030860000308700053053
:100FCC0087312327873129308400873085002030F2
:100FDC00860000308700073087312327FA01FB0198
:100FEC00FC01FD01A701A801A901AA01AB01200088
:060FFC0087314C2F1E346A
:020000040001F9
:04000E008CC9FFDFBB
:00000001FF
